:100000000C9464000C948C000C948C000C945B0792
:100010000C945B070C945B070C948C000C945D06AD
:100020000C948C000C948C000C948C000C948C0020
:100030000C948C000C948C000C948C000C948C0010
:100040000C9411070C948C000C94DF060C94B906E8
:100050000C948C000C948C000C948C000C948C00F0
:100060000C94D3070C948C0000000000240027009F
:100070002A0000000008000201000003040700003D
:1000800000000000000002000000002300260029FC
:100090000000000000250028002B000404040404D4
:1000A0000404040202020202020303030303030125
:1000B00002040810204080010204081020010204FC
:1000C00008102000F208840D11241FBECFEFD8E0E5
:1000D000DEBFCDBF11E0A0E0B1E0E4E6FCE102C08C
:1000E00005900D92A63DB107D9F723E0A6EDB1E04A
:1000F00001C01D92AE3CB207E1F710E0C3E6D0E0CC
:1001000004C02197FE010E941F0EC236D107C9F715
:100110000E94C4090C94250E0C94000008950895C3
:10012000AF92BF92CF92DF92EF92FF920F931F9305
:10013000CF93DF936C017B018B01040F151FEB0143
:100140005E01AE18BF08C017D10759F06991D601FA
:10015000ED91FC910190F081E02DC6010995892B6C
:1001600079F7C501DF91CF911F910F91FF90EF902B
:10017000DF90CF90BF90AF900895FC01538D448DD8
:10018000252F30E0842F90E0821B930B541710F042
:10019000CF96089501970895FC01918D828D98174F
:1001A00061F0A28DAE0FBF2FB11D5D968C91928D27
:1001B0009F5F9F73928F90E008958FEF9FEF089558
:1001C000FC01918D828D981731F0828DE80FF11D21
:1001D000858D90E008958FEF9FEF0895FC01918D3C
:1001E000228D892F90E0805C9F4F821B91098F7335
:1001F000992708958AEF92E00E94EE0021E0892B72
:1002000009F420E0822F089580E090E0892B29F006
:100210000E94FA0081110C9400000895FC01A48D45
:10022000A80FB92FB11DA35ABF4F2C91848D90E018
:1002300001968F739927848FA689B7892C93A089FB
:10024000B1898C91837080648C93938D848D981385
:1002500006C00288F389E02D80818F7D8083089518
:10026000EF92FF920F931F93CF93DF93EC0181E006
:10027000888F9B8D8C8D98131AC0E889F9898081AD
:1002800085FF15C09FB7F894EE89FF896083E889E0
:10029000F98980818370806480839FBF81E090E0D2
:1002A000DF91CF911F910F91FF90EF900895F62E5F
:1002B0000B8D10E00F5F1F4F0F731127E02E8C8DF9
:1002C0008E110CC00FB607FCFACFE889F98980813E
:1002D00085FFF5CFCE010E940E01F1CFEB8DEC0F23
:1002E000FD2FF11DE35AFF4FF0829FB7F8940B8F5B
:1002F000EA89FB8980818062CFCFCF93DF93EC01C5
:10030000888D8823B9F0AA89BB89E889F9898C91FD
:1003100085FD03C0808186FD0DC00FB607FCF7CFB9
:100320008C9185FFF2CF808185FFEDCFCE010E94B9
:100330000E01E9CFDF91CF91089590E0FC01EE58D6
:10034000FF4F2491FC01E155FF4F3491FC01E5562C
:10035000FF4FE491EE23C9F0222339F0233001F15D
:10036000A8F4213019F1223029F1F0E0EE0FFF1F3F
:10037000EF56FF4FA591B4918FB7F894EC916111AE
:1003800026C030953E233C938FBF08952730A9F0B7
:100390002830C9F0243049F7809180008F7D03C058
:1003A000809180008F7780938000DFCF84B58F7736
:1003B00084BDDBCF84B58F7DFBCF8091B0008F777C
:1003C0008093B000D2CF8091B0008F7DF9CF3E2BCB
:1003D000DACF9091000189130BC0E6E8F0E0E491D8
:1003E0009FEF90930001E13049F028F0E23061F096
:1003F00060E00C949D0110926E00FACF90916F0016
:100400009D7F90936F00F4CF909170009D7F9093AB
:10041000700091E09093B0009091B100987F94604B
:100420009093B1001092B300E3CFCF93DF9390E0AD
:10043000FC01E155FF4F249185569F4FFC018491AB
:100440008823D1F090E0880F991FFC01E859FF4FF5
:10045000A591B491FC01EF56FF4FC591D491611164
:100460000EC09FB7F8948C91E22FE0958E238C9369
:100470002881E223E8839FBFDF91CF9108958FB752
:10048000F894EC91E22BEC938FBFF6CF8E50806402
:1004900080937C0080917A00806480937A008091C0
:1004A0007A0086FDFCCF80917800909179000895C4
:1004B0003FB7F8948091C9029091CA02A091CB02F3
:1004C000B091CC0226B5A89B05C02F3F19F001962C
:1004D000A11DB11D3FBFBA2FA92F982F8827BC019E
:1004E000CD01620F711D811D911D42E0660F771FC6
:1004F000881F991F4A95D1F708958F929F92AF92C6
:10050000BF92CF92DF92EF92FF924B015C010E946B
:1005100058026B017C010E9458026C197D098E09FA
:100520009F09683E734081059105A8F321E0821A76
:100530009108A108B10888EEC80E83E0D81EE11C1E
:10054000F11C81149104A104B10429F7FF90EF90EC
:10055000DF90CF90BF90AF909F908F9008952091A3
:10056000CF023091D0022817390771F49091CD0253
:100570008091CE02981741F0E091CD02F0E0E8576B
:10058000FD4F808190E008958FEF9FEF08950895CB
:10059000EF92FF920F931F93CF93DF93DC015C9652
:1005A000ED90FC905D97E114F10479F481E090E026
:1005B00013969C938E93129790E080E0DF91CF91F9
:1005C0001F910F91FF90EF9008955196ED91FC913E
:1005D000529750968C915097982F90950FB75E96A2
:1005E0002C915E97122F127021FD6095F894208156
:1005F000112319F1282B2083E7012197F1F728E037
:10060000462F50E0308160FF1AC0382B3083E7015D
:100610002197F1F7BA0175956795215089F7112354
:1006200081F08081892380830FBF5C968D919C919E
:100630000197F1F781E090E0C1CF2923DCCF392386
:10064000E5CF9081892BEFCF2091CF023091D0025E
:100650002817390771F48091CE022091CD0290E0E5
:10066000805C9F4F821B910960E470E00E94F00D56
:10067000089590E080E008952091CF023091D0025B
:1006800028173907B9F49091CD028091CE029817BE
:1006900089F0E091CD02F0E0E857FD4F8081209194
:1006A000CD0230E02F5F3F4F2F7333272093CD02D1
:1006B00090E008958FEF9FEF08950895209117021D
:1006C000260F3327331F21323105ECF420916002CD
:1006D000FC0190E080E0243069F082E00895A09170
:1006E00017022191AC0149505E4FA40FB52FB11DE7
:1006F0002C930196861798F380911702680F6093E8
:10070000170280E0089581E008951092600281E070
:1007100080935F0210923A0261E082E10E949D01A3
:1007200061E083E10E949D01E9EBF0E080818E7F32
:10073000808380818D7F808388E48093B80085E406
:100740008093BC000895CF93DF9391E09093F601DE
:100750008823B9F0C091B800D091BA008091BC0054
:100760008A7B8093BC0060E082E10E949D0160E092
:1007700083E10E949D010E948503D093BA00C0933B
:10078000B800DF91CF910895E091D8028091D7020F
:10079000E81730F4F0E0EA52FE4F808190E00895CF
:1007A0008FEF9FEF08959091D8028091D7022FEF9D
:1007B0003FEF981748F4E92FF0E0EA52FE4F20810E
:1007C00030E09F5F9093D802C90108958091D702CD
:1007D0009091D802891B990B0895CF92DF92EF92E6
:1007E000FF920F931F93CF93DF937C01CB018A017C
:1007F00020916602222389F0EB016B01C40ED51E05
:10080000CC15DD0569F06991D701ED91FC9101905E
:10081000F081E02DC7010995F3CF642F0E945E039C
:10082000C801DF91CF911F910F91FF90EF90DF9062
:10083000CF900895CF93DF931F92CDB7DEB7698332
:10084000209166022223F9F02091D502203258F03F
:1008500021E030E0FC013383228390E080E00F90C0
:10086000DF91CF9108958091D602E82FF0E0E95909
:10087000FD4F998190838F5F8093D6028093D5023C
:1008800081E090E0ECCF61E0CE0101960E945E0332
:10089000F7CFCF92DF92EF92FF920F931F93CF93F8
:1008A000DF93FC01C48121E020936602C09387029C
:1008B0001092D6021092D5028385682B87E993E0C7
:1008C0000E941A04D091D502D13208F092C00E9441
:1008D00058026B017C0180916002811165C082E049
:1008E0008093600281E080935F028FEF80935E02CD
:1008F00010925D02D0935C02A7E6B2E0ECE3F2E076
:1009000080E0D81385C010923B0280913B02CC0F4F
:10091000C82BC0933B0280913A02813009F07CC021
:1009200010923A020E9458026B017C0180913B02B6
:100930008093BB008091620290916302A091640257
:10094000B0916502892B8A2B8B2B99F00E9458025B
:10095000009162021091630220916402309165025D
:100960006C197D098E099F09061717072807390793
:10097000E0F18091BC0083FDD9CF85EC8093BC0071
:100980000E9458026B017C0180916002823009F460
:1009900045C080915E028F3F61F180915E0280329E
:1009A00041F180915E0225C08091620290916302C4
:1009B000A0916402B0916502892B8A2B8B2B09F4DC
:1009C0008ACF0E9458020091620210916302209126
:1009D0006402309165026C197D098E099F09061722
:1009E00017072807390708F076CF809161020E9427
:1009F000A3031092D6021092D50210926602DF91E4
:100A0000CF911F910F91FF90EF90DF90CF900895BD
:100A10009D9191938F5F75CF85EEB0CF80916202EB
:100A200090916302A0916402B0916502892B8A2B98
:100A30008B2B09F4A9CF0E945802009162021091F9
:100A4000630220916402309165026C197D098E0960
:100A50009F09061717072807390708F095CFC5CF54
:100A600090E080E008950F931F93CF938C01C62FE1
:100A70000E9449046C2F6460C8010E9449046C2FD5
:100A80006B7FC8010E94490483EC90E00197F1F765
:100A9000CF911F910F9108950F931F93CF93DF93E1
:100AA0008C01D62FC42F607F642B0E94330580E118
:100AB000D89FB00111246C2BC801DF91CF911F91F9
:100AC0000F910C943305CF93DF93CDB7DEB7289702
:100AD0000FB6F894DEBF0FBECDBF98E0E1E0F1E0C5
:100AE000DE01119601900D929A95E1F79091CA035B
:100AF000981708F48FEF90E0880F991F21E030E0FD
:100B00002C0F3D1F820F931FFC016081606840E045
:100B100082EC93E028960FB6F894DEBF0FBECDBFEF
:100B2000DF91CF910C944C0541E00E944C0581E08F
:100B300090E00895FB0101900020E9F73197AF01A3
:100B4000461B570BDC01ED91FC910280F381E02DF7
:100B500009948F929F92AF92BF92CF92DF92EF92C1
:100B6000FF92CF93DF93CDB7DEB7A1970FB6F8947E
:100B7000DEBF0FBECDBF6C01990FEE08FF08F7FE78
:100B800040C041E06DE282EC93E00E944C052227D8
:100B90003327A9012C193D094E095F0919A2CE017D
:100BA00081967C019AE0892E912CA12CB12CCA014E
:100BB000B901A50194010E94BF0D605DF701629328
:100BC0007F01211531054105510589F790E080E04D
:100BD000309729F0BF0182EC93E00E949A050196BC
:100BE000A1960FB6F894DEBF0FBECDBFDF91CF91B7
:100BF000FF90EF90DF90CF90BF90AF909F908F903D
:100C00000895A701960119A2CE0181967C018AE080
:100C1000882E912CA12CB12CCA01B901A5019401F7
:100C20000E94BF0D605DF70162937F0121153105C0
:100C30004105510589F790E080E0309789F2BF01C6
:100C400082EC93E00E949A05CBCF85ED8093BC00A7
:100C50008091620290916302A0916402B09165025A
:100C60000796A11DB11D23E0B695A7959795879589
:100C70002A95D1F72091BC0024FD03C01092600298
:100C800008954091620250916302609164027091F4
:100C90006502452B462B472B69F30097A105B1054B
:100CA00041F025E32A95F1F700000197A109B10968
:100CB000E1CF809161020C94A3031F920F920FB6B3
:100CC0000F9211242F933F934F935F936F937F93D2
:100CD0008F939F93AF93BF93EF93FF938091DE0227
:100CE0009091DF02A091E002B091E102892B8A2B62
:100CF0008B2BD1F19091D902E091DA02F091DB02D5
:100D00008081892780838091DE029091DF02A0910B
:100D1000E002B091E102181619061A061B069CF4AF
:100D20008091DE029091DF02A091E002B091E10299
:100D30000197A109B1098093DE029093DF02A0938D
:100D4000E002B093E102FF91EF91BF91AF919F91CB
:100D50008F917F916F915F914F913F912F910F9064
:100D60000FBE0F901F901895809100010E94E9011D
:100D7000EACF1F920F920FB60F9211242F933F9339
:100D80004F935F936F937F938F939F93AF93BF9393
:100D9000EF93FF938AEF92E00E940E01FF91EF9193
:100DA000BF91AF919F918F917F916F915F914F9183
:100DB0003F912F910F900FBE0F901F9018951F928B
:100DC0000F920FB60F9211242F938F939F93EF934F
:100DD000FF93E0910A03F0910B038081E0911003EF
:100DE000F091110382FD1BC09081809113038F5FEE
:100DF0008F7320911403821741F0E0911303F0E008
:100E0000E650FD4F958F80931303FF91EF919F91D3
:100E10008F912F910F900FBE0F901F90189580818A
:100E2000F4CF1F920F920FB60F9211242F933F937E
:100E30008F939F93AF93BF938091EA029091EB02BF
:100E4000A091EC02B091ED023091C80223E0230F93
:100E50002D3758F50196A11DB11D2093C80280932E
:100E6000EA029093EB02A093EC02B093ED02809122
:100E7000C9029091CA02A091CB02B091CC02019616
:100E8000A11DB11D8093C9029093CA02A093CB0209
:100E9000B093CC02BF91AF919F918F913F912F91D1
:100EA0000F900FBE0F901F90189526E8230F029603
:100EB000A11DB11DD2CF1F920F920FB60F92112418
:100EC0002F933F934F935F936F937F938F939F9352
:100ED000AF93BF93EF93FF93E091CF02F091D002D5
:100EE000309749F0A685B7858585968D91FF14C00A
:100EF0009C918923A1F4FF91EF91BF91AF919F91B4
:100F00008F917F916F915F914F913F912F910F90B2
:100F10000FBE0F901F9018959C91892361F7A389AC
:100F2000B4899C918589809589238C93868997893A
:100F30000197F1F7608D718DA685B785558538E0ED
:100F400020E0CB010197F1F7822F90E095958795EE
:100F5000282F4C91452309F02068315091F7868D58
:100F600081FD20958091CE0290E001968F739927A4
:100F70003091CD02381799F0A091CE02B0E0A85779
:100F8000BD4F2C938093CE02828D938D0197F1F704
:100F9000A389B4898C919589892B8C93ACCF868D4C
:100FA0008160868FF1CF1F920F920FB60F9211249E
:100FB0002F933F934F935F936F937F938F939F9361
:100FC000AF93BF93EF93FF938091B900887F8036F2
:100FD00009F44AC0F0F5883209F4A7C018F5803149
:100FE00009F49BC0B8F4882309F4F9C0883009F4E7
:100FF00094C0FF91EF91BF91AF919F918F917F919D
:101000006F915F914F913F912F910F900FBE0F9075
:101010001F901895883109F488C0803251F7809369
:101020005E0214C0803409F49DC040F48033B9F3EB
:101030008833F9F680935E0285ECB0C0803509F400
:1010400085C0883509F496C0883499F60E94250633
:10105000D0CF883909F48CC038F5883729F050F49E
:10106000883611F0803729F683E080936002109271
:10107000390257C0883809F47BC0803919F08038AC
:1010800009F0B7CF80913902803208F071C0E09149
:10109000390281E08E0F809339028091BB00F0E02D
:1010A000E75EFD4F80833DC0803B39F0E0F4803A3D
:1010B00009F479C0883A09F09CCF84E080936002FB
:1010C0001092180210921702E091D302F091D4020C
:1010D00009958091170281110FC081E0809317025A
:1010E0001092F70109C0803C09F4A6CF883C09F4AE
:1010F000A3CF883B09F07DCFE091180281E08E0FED
:1011000080931802F0E0E950FE4F80818093BB008D
:10111000909118028091170229C080913B02809320
:10112000BB0085EC8093BC0064CF90915D02809100
:101130005C02981758F5E0915D0281E08E0F809374
:101140005D02F0E0E45CFD4F8081E9CFE0915D025B
:1011500081E08E0F80935D028091BB00F0E0E45C43
:10116000FD4F808390915D0280915C029817C8F2D8
:1011700085E8D8CFE0915D0281E08E0F80935D021B
:101180008091BB00F0E0E45CFD4F808380915F02C2
:1011900081115CCF81E080933A0284EA8093BC00A5
:1011A0001092600226CF85EC8093BC001092600202
:1011B00080913902803230F4E0913902F0E0E75E4C
:1011C000FD4F10826091390270E0E091D102F09100
:1011D000D20289E192E00995109239020ACF109269
:1011E0005E0234CF1092FD021092FC0288EE93E072
:1011F000A0E0B0E08093FE029093FF02A093000372
:10120000B09301032DE031E03093FB022093FA020A
:1012100025EC30E0309307032093060324EC30E004
:10122000309309032093080320EC30E030930B0344
:1012300020930A0321EC30E030930D0320930C033C
:1012400022EC30E030930F0320930E0326EC30E0C5
:101250003093110320931003109213031092140380
:10126000109215031092160310929A03109299038C
:1012700080939B0390939C03A0939D03B0939E0344
:101280002FE131E030939803209397031092C50328
:101290001092C40323E431E03093C3032093C203CC
:1012A00027E22093C60320E12093CB0322E0209382
:1012B000CC031092CD031092A6031092A503809345
:1012C000A7039093A803A093A903B093AA0381E373
:1012D00091E09093A4038093A3031092BA03109219
:1012E000B9031092BC031092BB031092BE0310927C
:1012F000BD031092C0031092BF036091C1036E7FC3
:101300006D7F6093C1036695617081E0682783E01B
:101310000E949D0161E083E00E941502E2EBF0E093
:10132000E491E093B303EEE9F0E0E491F0E0EE0F36
:10133000FF1FEF56FF4F859194919093B5038093D3
:10134000B40360E082E00E9415028091C10381FD38
:1013500004C061E082E00E949D0182E08093AF03BF
:10136000E1EBF0E0E491E093B003EDE9F0E0E4912B
:10137000F0E0EE0FFF1FE957FF4F85919491909396
:10138000B2038093B1030895789484B5826084BDDC
:1013900084B5816084BD85B5826085BD85B5816079
:1013A00085BD80916E00816080936E0010928100F7
:1013B00080918100826080938100809181008160B2
:1013C0008093810080918000816080938000809173
:1013D000B10084608093B1008091B00081608093FF
:1013E000B00080917A00846080937A0080917A00C6
:1013F000826080937A0080917A00816080937A0085
:1014000080917A00806880937A001092C100E09108
:101410000A03F0910B0382E08083E0910603F091D0
:1014200007031082E0910803F09109038FEC808399
:1014300010921203E0910E03F0910F0386E0808377
:10144000E0910C03F0910D03808180618083E09135
:101450000C03F0910D03808188608083E0910C0380
:10146000F0910D03808180688083E0910C03F091FE
:101470000D0380818F7D80831092BE031092BD0387
:101480001092BC031092BB031092BA031092B903DE
:101490008DE991E09093C0038093BF039091AF03D7
:1014A000963108F047C02DEB30E03093BA0320931B
:1014B000B9032BE931E03093BC032093BB032CE24A
:1014C00031E03093BE032093BD032091680084E097
:1014D000983048F031E09E3008F430E081E001C0FF
:1014E000880F3A95EAF7822B809368002DE630E06A
:1014F000983050F02BE630E09E3030F02CE630E0B3
:10150000963110F030E020E03093B7032093B6031B
:10151000292F30E0983008F0B5C181E001C0880F74
:101520009A95EAF78093B8038091BF039091C00326
:101530000197F1F78091BD039091BE03892B49F18A
:10154000E091CF02F091D00223E0E33AF20709F1F3
:10155000309739F0A389B4899C9185898095892336
:101560008C938091C1038E7F8093C1031092CE0231
:101570001092CD0283EA93E09093D0028093CF0241
:10158000E091B603F091B70380819091B803892B65
:1015900080831092D8021092D7021092D602109235
:1015A000D5020E9485038EE890E09093D402809348
:1015B000D3028FE890E09093D2028093D1021092F0
:1015C000C7038091CC03823018F098E09093C70352
:1015D0008093CA0362E370E080E090E00E947D02A5
:1015E0006091CD0382EC93E00E94490468EE73E0C1
:1015F00080E090E00E947D0260E382EC93E00E9434
:101600003305CBE4D6E4CE010197F1F760E382EC39
:1016100093E00E9433052197F1F760E382EC93E0B9
:101620000E94330583E592E00197F1F760E282ECD6
:1016300093E00E9433056091C703606240E082EC52
:1016400093E00E944C0584E08093C80340E06CE086
:1016500082EC93E00E944C0540E061E082EC93E074
:101660000E944C05CBE3DFE1CE010197F1F782E068
:101670008093C90340E066E082EC93E00E944C0551
:1016800040E062E082EC93E00E944C05CE010197BD
:10169000F1F788E08093CD0360E082EC93E00E9454
:1016A000490480E00E9463056BE471E082EC93E002
:1016B0000E949A0581E00E9463056DE571E082EC6D
:1016C00093E00E949A0560ED77E080E090E00E9450
:1016D0007D0240E061E082EC93E00E944C0521979E
:1016E000F1F761E088E00E94150260E08EE00E9460
:1016F000150260E08FE00E94150288248A9433E08E
:10170000932EA12CB12C47EB242E40E0342ECC2478
:10171000CA94DC2C76018EE00E9446028C019093E4
:10172000F9028093F8028FE00E944602EC01909348
:10173000F7028093F6022FB7F8948091EA02909115
:10174000EB02A091EC02B091ED022FBF4091F202AA
:101750005091F3026091F4027091F502841B950B95
:10176000A60BB70B853F9140A105B10508F4B3C1A5
:101770002CE330E0D8010E94040EA50194010E94E0
:10178000A00D29013A01FCE34F0E511C611C711C94
:1017900082012FB7F8948091EA029091EB02A09118
:1017A000EC02B091ED022FBF8093F2029093F3020E
:1017B000A093F402B093F50280E00E9463056DE609
:1017C00071E082EC93E00E949A052AE030E0DE01AD
:1017D0000E94040EA50194010E94A00DDA01C90126
:1017E000865A9F4FAF4FBF4F0E94A90564E771E033
:1017F00082EC93E00E949A0581E00E94630569E70C
:1018000071E082EC93E00E949A05C2010E94A90552
:101810006EE771E082EC93E00E949A0505361105AF
:101820000CF46EC164E871E082EC93E00E949A05CA
:1018300080910001883099F5E6E8F0E0C491C7FD99
:10184000D0C061E088E00E941502CC2309F499C061
:10185000C23009F0AAC08091B100887F8360809374
:10186000B10089EF8093B300C092DE02D092DF0214
:10187000E092E002F092E102809170008260809339
:101880007000AFC09E3040F42850310981E001C0A3
:10189000880F2A95EAF746CE2E503109F7CF8F3FB1
:1018A00009F09FC088E080930001E6E8F0E0C49171
:1018B000CF3F09F496C0C13021F150F0C23009F495
:1018C0003EC0C7FD8EC061E088E00E941502C0CF17
:1018D00014BC15BC84B5826084BD85B5816085BDAE
:1018E000E3EAF0E08491E82FF0E0EE0FFF1FEF56FF
:1018F000FF4F85919491F10184918093DD02C0E0C6
:10190000A0CF1092800010928100809181008860A9
:101910008093810080918100816080938100E3EA5F
:10192000F0E08491E82FF0E0EE0FFF1FEF56FF4F3D
:1019300085919491F10184918093DC0282CF109281
:10194000B0001092B1008091B00082608093B0002E
:101950008091B10081608093B100E3EAF0E084916E
:10196000E82FF0E0EE0FFF1FEF56FF4F85919491A7
:101970009093DB028093DA02F10184918093D90283
:1019800060CF85B5887F836085BD8CE787BDC092B9
:10199000E602D092E702E092E802F092E90280913A
:1019A0006E00826080936E001CC0C13009F0A0C040
:1019B00080918100887F8160809381008FE39FE127
:1019C0009093890080938800C092E202D092E30253
:1019D000E092E402F092E50280916F0082608093D1
:1019E0006F0068EC70E080E090E00E947D0288E08B
:1019F0000E94E9012FB7F8948091EA029091EB02DE
:101A0000A091EC02B091ED022FBF4091EE025091F7
:101A1000EF026091F0027091F102841B950BA60B0E
:101A2000B70B81369A4EA105B10508F454C06BE896
:101A300071E083EA93E00E949A0565E971E083EA28
:101A400093E00E949A0564E670E080E090E00E94D6
:101A50007D0268E971E083EA93E00E949A0565E9F6
:101A600071E083EA93E00E949A0564E670E080E00A
:101A700090E00E947D026EEA71E083EA93E00E94AA
:101A80009A0564E670E080E090E00E947D026AE1E1
:101A900083EA93E00E94C80265E971E083EA93E07B
:101AA0000E949A0568EE73E080E090E00E947D025B
:101AB0002FB7F8948091EA029091EB02A091EC028A
:101AC000B091ED022FBF8093EE029093EF02A093AE
:101AD000F002B093F10280E090E0892B09F41BCE74
:101AE0000E94FA00882309F416CE0E94000013CE4B
:101AF000C23021F0C11175CF8FE348CF8FE3B2CE52
:101B000088E00E94E901E7CF81E391E09093A4038C
:101B10008093A3038091CF029091D002835A934087
:101B200071F4E091B603F091B70390818091B8030E
:101B30008095892380831092D0021092CF0208955D
:101B4000052E97FB1EF400940E94B70D57FD07D099
:101B50000E94BF0D07FC03D04EF40C94B70D5095B6
:101B60004095309521953F4F4F4F5F4F0895909589
:101B70008095709561957F4F8F4F9F4F0895A1E29B
:101B80001A2EAA1BBB1BFD010DC0AA1FBB1FEE1FF7
:101B9000FF1FA217B307E407F50720F0A21BB30B42
:101BA000E40BF50B661F771F881F991F1A9469F7BE
:101BB00060957095809590959B01AC01BD01CF011A
:101BC0000895A29FB001B39FC001A39F700D811D16
:101BD0001124911DB29F700D811D1124911D089536
:101BE00097FB072E16F4009407D077FD09D00E94CA
:101BF0000B0E07FC05D03EF4909581959F4F0895FC
:101C0000709561957F4F08950E94E10DB7FF08958B
:101C1000821B930B0895AA1BBB1B51E107C0AA1F8F
:101C2000BB1FA617B70710F0A61BB70B881F991F7D
:101C30005A95A9F780959095BC01CD010895EE0FB6
:101C4000FF1F0590F491E02D099410E0C3E6D0E069
:101C500004C0FE010E941F0E2196C436D107C9F7A9
:041C6000F894FFCF26
:101C6400FF00004000140054000000000030019008
:101C740000BD007D01EE00CC00E000000000001A71
:101C840004ED033005C702E603D303C403000000D8
:101C940000C80290003005C70224033C03AF0200D1
:101CA4000000009405900030055D0353704F32200E
:101CB40026204852204D6F6E69746F7200496E6918
:101CC4007469616C697A696E672E2E2E0053704FA9
:101CD400323A2000252020200048523A2000206279
:101CE400706D2000416C657274210041542B434D8A
:101CF40047463D31000D0A0041542B434D47533DA7
:101D0400222B3132333435363738393022004865A6
:101D1400617274207261746520616C657274212033
:101D240048522069732061626F766520313030201B
:061D340062706D2E00003C
:00000001FF
